{
  "_format": "hh-sol-artifact-1",
  "contractName": "FHE",
  "sourceName": "@fhenixprotocol/contracts/FHE.sol",
  "abi": [
    {
      "inputs": [],
      "name": "NIL16",
      "outputs": [
        {
          "internalType": "euint16",
          "name": "",
          "type": "uint256"
        }
      ],
      "stateMutability": "view",
      "type": "function"
    },
    {
      "inputs": [],
      "name": "NIL32",
      "outputs": [
        {
          "internalType": "euint32",
          "name": "",
          "type": "uint256"
        }
      ],
      "stateMutability": "view",
      "type": "function"
    },
    {
      "inputs": [],
      "name": "NIL8",
      "outputs": [
        {
          "internalType": "euint8",
          "name": "",
          "type": "uint256"
        }
      ],
      "stateMutability": "view",
      "type": "function"
    }
  ],
  "bytecode": "0x61019561004e600b8282823980515f1a607314610042577f4e487b71000000000000000000000000000000000000000000000000000000005f525f60045260245ffd5b305f52607381538281f3fe730000000000000000000000000000000000000000301460806040526004361061004a575f3560e01c80639e80b5131461004e578063acfc53ee1461006c578063b1c485441461008a575b5f80fd5b6100566100a8565b60405161006391906100f6565b60405180910390f35b6100746100ac565b604051610081919061011e565b60405180910390f35b6100926100b0565b60405161009f9190610146565b60405180910390f35b5f81565b5f81565b5f81565b5f819050919050565b5f819050919050565b5f6100e06100db6100d6846100b4565b6100bd565b6100b4565b9050919050565b6100f0816100c6565b82525050565b5f6020820190506101095f8301846100e7565b92915050565b610118816100c6565b82525050565b5f6020820190506101315f83018461010f565b92915050565b610140816100c6565b82525050565b5f6020820190506101595f830184610137565b9291505056fea26469706673582212201ffda4a83957b1f313963a9d80a3c523842a6fc336ee0ccc554278b066f4932164736f6c63430008180033",
  "linkReferences": {},
  "deployedLinkReferences": {}
}