{
  "_format": "hh-sol-artifact-1",
  "contractName": "Precompiles",
  "sourceName": "@fhenixprotocol/contracts/FheOS.sol",
  "abi": [
    {
      "inputs": [],
      "name": "Fheos",
      "outputs": [
        {
          "internalType": "address",
          "name": "",
          "type": "address"
        }
      ],
      "stateMutability": "view",
      "type": "function"
    }
  ],
  "bytecode": "0x60dd61004d600b8282823980515f1a607314610041577f4e487b71000000000000000000000000000000000000000000000000000000005f525f60045260245ffd5b305f52607381538281f3fe73000000000000000000000000000000000000000030146080604052600436106032575f3560e01c806313d8d464146036575b5f80fd5b603c6050565b604051604791906090565b60405180910390f35b608081565b5f73ffffffffffffffffffffffffffffffffffffffff82169050919050565b5f607c826055565b9050919050565b608a816074565b82525050565b5f60208201905060a15f8301846083565b9291505056fea2646970667358221220990f84946d7ec2a5efa59e7a6a0aea4716819f1abff15f10762e3ed6e446431064736f6c63430008180033",
  "linkReferences": {},
  "deployedLinkReferences": {}
}