{
  "_format": "hh-sol-artifact-1",
  "contractName": "BlindDrop",
  "sourceName": "contracts/BlindDrop.sol",
  "abi": [
    {
      "inputs": [
        {
          "internalType": "uint32",
          "name": "initialStock",
          "type": "uint32"
        },
        {
          "internalType": "uint64",
          "name": "initialPrice",
          "type": "uint64"
        }
      ],
      "stateMutability": "nonpayable",
      "type": "constructor"
    },
    {
      "inputs": [],
      "name": "InvalidShortString",
      "type": "error"
    },
    {
      "inputs": [],
      "name": "SignerNotMessageSender",
      "type": "error"
    },
    {
      "inputs": [],
      "name": "SignerNotOwner",
      "type": "error"
    },
    {
      "inputs": [
        {
          "internalType": "string",
          "name": "str",
          "type": "string"
        }
      ],
      "name": "StringTooLong",
      "type": "error"
    },
    {
      "anonymous": false,
      "inputs": [],
      "name": "EIP712DomainChanged",
      "type": "event"
    },
    {
      "inputs": [],
      "name": "DECAY_RATE",
      "outputs": [
        {
          "internalType": "uint256",
          "name": "",
          "type": "uint256"
        }
      ],
      "stateMutability": "view",
      "type": "function"
    },
    {
      "inputs": [],
      "name": "SPAM_WALL_FEE",
      "outputs": [
        {
          "internalType": "uint256",
          "name": "",
          "type": "uint256"
        }
      ],
      "stateMutability": "view",
      "type": "function"
    },
    {
      "inputs": [
        {
          "components": [
            {
              "internalType": "bytes",
              "name": "data",
              "type": "bytes"
            },
            {
              "internalType": "int32",
              "name": "securityZone",
              "type": "int32"
            }
          ],
          "internalType": "struct inEuint64",
          "name": "encryptedLimitOrder",
          "type": "tuple"
        }
      ],
      "name": "attemptPurchase",
      "outputs": [],
      "stateMutability": "payable",
      "type": "function"
    },
    {
      "inputs": [],
      "name": "decayPrice",
      "outputs": [],
      "stateMutability": "nonpayable",
      "type": "function"
    },
    {
      "inputs": [],
      "name": "deposit",
      "outputs": [],
      "stateMutability": "payable",
      "type": "function"
    },
    {
      "inputs": [],
      "name": "eip712Domain",
      "outputs": [
        {
          "internalType": "bytes1",
          "name": "fields",
          "type": "bytes1"
        },
        {
          "internalType": "string",
          "name": "name",
          "type": "string"
        },
        {
          "internalType": "string",
          "name": "version",
          "type": "string"
        },
        {
          "internalType": "uint256",
          "name": "chainId",
          "type": "uint256"
        },
        {
          "internalType": "address",
          "name": "verifyingContract",
          "type": "address"
        },
        {
          "internalType": "bytes32",
          "name": "salt",
          "type": "bytes32"
        },
        {
          "internalType": "uint256[]",
          "name": "extensions",
          "type": "uint256[]"
        }
      ],
      "stateMutability": "view",
      "type": "function"
    },
    {
      "inputs": [
        {
          "components": [
            {
              "internalType": "bytes32",
              "name": "publicKey",
              "type": "bytes32"
            },
            {
              "internalType": "bytes",
              "name": "signature",
              "type": "bytes"
            }
          ],
          "internalType": "struct Permission",
          "name": "permission",
          "type": "tuple"
        }
      ],
      "name": "getEncryptedBalance",
      "outputs": [
        {
          "internalType": "uint64",
          "name": "",
          "type": "uint64"
        }
      ],
      "stateMutability": "view",
      "type": "function"
    },
    {
      "inputs": [],
      "name": "lastDecayTime",
      "outputs": [
        {
          "internalType": "uint256",
          "name": "",
          "type": "uint256"
        }
      ],
      "stateMutability": "view",
      "type": "function"
    },
    {
      "inputs": [],
      "name": "lastRevealTime",
      "outputs": [
        {
          "internalType": "uint256",
          "name": "",
          "type": "uint256"
        }
      ],
      "stateMutability": "view",
      "type": "function"
    },
    {
      "inputs": [],
      "name": "publicStalePrice",
      "outputs": [
        {
          "internalType": "uint64",
          "name": "",
          "type": "uint64"
        }
      ],
      "stateMutability": "view",
      "type": "function"
    },
    {
      "inputs": [],
      "name": "requestPriceReveal",
      "outputs": [],
      "stateMutability": "nonpayable",
      "type": "function"
    }
  ],
  "bytecode": "0x610180604052662386f26fc100006101609081525034801562000020575f80fd5b5060405162002b6e38038062002b6e8339818101604052810190620000469190620004b7565b6040518060400160405280601181526020017f4668656e6978205065726d697373696f6e0000000000000000000000000000008152506040518060400160405280600381526020017f312e300000000000000000000000000000000000000000000000000000000000815250620000c75f83620001a760201b90919060201c565b6101208181525050620000e5600182620001a760201b90919060201c565b6101408181525050818051906020012060e08181525050808051906020012061010081815250504660a0818152505062000124620001fc60201b60201c565b608081815250503073ffffffffffffffffffffffffffffffffffffffff1660c08173ffffffffffffffffffffffffffffffffffffffff16815250505050620001788263ffffffff166200025860201b60201c565b600381905550620001998167ffffffffffffffff166200027460201b60201c565b600481905550505062000c7f565b5f602083511015620001cc57620001c4836200029060201b60201c565b9050620001f6565b82620001de83620002fa60201b60201c565b5f019081620001ee919062000760565b5060ff5f1b90505b92915050565b5f7f8b73c3c69bb8fe3d512ecc4cf759cc79239f7b179b0ffacaa9a75d522b39400f60e0516101005146306040516020016200023d959493929190620008b2565b60405160208183030381529060405280519060200120905090565b5f6200026d8260025f6200030360201b60201c565b9050919050565b5f620002898260035f6200030360201b60201c565b9050919050565b5f80829050601f81511115620002df57826040517f305a27a9000000000000000000000000000000000000000000000000000000008152600401620002d6919062000997565b60405180910390fd5b805181620002ed90620009e8565b5f1c175f1b915050919050565b5f819050919050565b5f6060608073ffffffffffffffffffffffffffffffffffffffff1663ba19ac286200033487620003b860201b60201c565b86866040518463ffffffff1660e01b8152600401620003569392919062000ae1565b5f60405180830381865afa15801562000371573d5f803e3d5ffd5b505050506040513d5f823e3d601f19601f820116820180604052508101906200039b919062000c30565b9050620003ae816200041960201b60201c565b9150509392505050565b6060602067ffffffffffffffff811115620003d857620003d762000506565b5b6040519080825280601f01601f1916602001820160405280156200040b5781602001600182028036833780820191505090505b509050816020820152919050565b5f60208201519050919050565b5f604051905090565b5f80fd5b5f80fd5b5f63ffffffff82169050919050565b620004518162000437565b81146200045c575f80fd5b50565b5f815190506200046f8162000446565b92915050565b5f67ffffffffffffffff82169050919050565b620004938162000475565b81146200049e575f80fd5b50565b5f81519050620004b18162000488565b92915050565b5f8060408385031215620004d057620004cf6200042f565b5b5f620004df858286016200045f565b9250506020620004f285828601620004a1565b9150509250929050565b5f81519050919050565b7f4e487b71000000000000000000000000000000000000000000000000000000005f52604160045260245ffd5b7f4e487b71000000000000000000000000000000000000000000000000000000005f52602260045260245ffd5b5f60028204905060018216806200057857607f821691505b6020821081036200058e576200058d62000533565b5b50919050565b5f819050815f5260205f209050919050565b5f6020601f8301049050919050565b5f82821b905092915050565b5f60088302620005f27fffffffffffffffffffffffffffffffffffffffffffffffffffffffffffffffff82620005b5565b620005fe8683620005b5565b95508019841693508086168417925050509392505050565b5f819050919050565b5f819050919050565b5f62000648620006426200063c8462000616565b6200061f565b62000616565b9050919050565b5f819050919050565b620006638362000628565b6200067b62000672826200064f565b848454620005c1565b825550505050565b5f90565b6200069162000683565b6200069e81848462000658565b505050565b5b81811015620006c557620006b95f8262000687565b600181019050620006a4565b5050565b601f8211156200071457620006de8162000594565b620006e984620005a6565b81016020851015620006f9578190505b620007116200070885620005a6565b830182620006a3565b50505b505050565b5f82821c905092915050565b5f620007365f198460080262000719565b1980831691505092915050565b5f62000750838362000725565b9150826002028217905092915050565b6200076b82620004fc565b67ffffffffffffffff81111562000787576200078662000506565b5b62000793825462000560565b620007a0828285620006c9565b5f60209050601f831160018114620007d6575f8415620007c1578287015190505b620007cd858262000743565b8655506200083c565b601f198416620007e68662000594565b5f5b828110156200080f57848901518255600182019150602085019450602081019050620007e8565b868310156200082f57848901516200082b601f89168262000725565b8355505b6001600288020188555050505b505050505050565b5f819050919050565b620008588162000844565b82525050565b620008698162000616565b82525050565b5f73ffffffffffffffffffffffffffffffffffffffff82169050919050565b5f6200089a826200086f565b9050919050565b620008ac816200088e565b82525050565b5f60a082019050620008c75f8301886200084d565b620008d660208301876200084d565b620008e560408301866200084d565b620008f460608301856200085e565b620009036080830184620008a1565b9695505050505050565b5f82825260208201905092915050565b5f5b838110156200093c5780820151818401526020810190506200091f565b5f8484015250505050565b5f601f19601f8301169050919050565b5f6200096382620004fc565b6200096f81856200090d565b9350620009818185602086016200091d565b6200098c8162000947565b840191505092915050565b5f6020820190508181035f830152620009b1818462000957565b905092915050565b5f81519050919050565b5f819050602082019050919050565b5f620009df825162000844565b80915050919050565b5f620009f482620009b9565b8262000a0084620009c3565b905062000a0d81620009d2565b9250602082101562000a505762000a4b7fffffffffffffffffffffffffffffffffffffffffffffffffffffffffffffffff83602003600802620005b5565b831692505b5050919050565b5f82825260208201905092915050565b5f62000a7382620009b9565b62000a7f818562000a57565b935062000a918185602086016200091d565b62000a9c8162000947565b840191505092915050565b5f60ff82169050919050565b62000abe8162000aa7565b82525050565b5f8160030b9050919050565b62000adb8162000ac4565b82525050565b5f6060820190508181035f83015262000afb818662000a67565b905062000b0c602083018562000ab3565b62000b1b604083018462000ad0565b949350505050565b5f80fd5b5f80fd5b62000b368262000947565b810181811067ffffffffffffffff8211171562000b585762000b5762000506565b5b80604052505050565b5f62000b6c62000426565b905062000b7a828262000b2b565b919050565b5f67ffffffffffffffff82111562000b9c5762000b9b62000506565b5b62000ba78262000947565b9050602081019050919050565b5f62000bca62000bc48462000b7f565b62000b61565b90508281526020810184848401111562000be95762000be862000b27565b5b62000bf68482856200091d565b509392505050565b5f82601f83011262000c155762000c1462000b23565b5b815162000c2784826020860162000bb4565b91505092915050565b5f6020828403121562000c485762000c476200042f565b5b5f82015167ffffffffffffffff81111562000c685762000c6762000433565b5b62000c768482850162000bfe565b91505092915050565b60805160a05160c05160e05161010051610120516101405161016051611e9b62000cd35f395f818161023601526104a601525f61098a01525f61094f01525f50505f50505f50505f50505f5050611e9b5ff3fe60806040526004361061009b575f3560e01c806384b0196e1161006357806384b0196e1461015d57806386c45b151461018d5780638cb3914f146101a3578063ccb018b9146101bf578063d0e30db0146101fb578063e9d4bd27146102055761009b565b80631de40e491461009f5780632c550080146100c95780633c57ddec146100f3578063583d3c4c1461011d57806373fe492d14610147575b5f80fd5b3480156100aa575f80fd5b506100b361022f565b6040516100c09190611383565b60405180910390f35b3480156100d4575f80fd5b506100dd610234565b6040516100ea9190611383565b60405180910390f35b3480156100fe575f80fd5b50610107610258565b6040516101149190611383565b60405180910390f35b348015610128575f80fd5b5061013161025e565b60405161013e91906113be565b60405180910390f35b348015610152575f80fd5b5061015b610277565b005b348015610168575f80fd5b506101716103a5565b60405161018497969594939291906115a9565b60405180910390f35b348015610198575f80fd5b506101a161044a565b005b6101bd60048036038101906101b8919061180f565b6104a4565b005b3480156101ca575f80fd5b506101e560048036038101906101e091906118e9565b6106ec565b6040516101f291906113be565b60405180910390f35b61020361073a565b005b348015610210575f80fd5b506102196107d1565b6040516102269190611383565b60405180910390f35b600a81565b7f000000000000000000000000000000000000000000000000000000000000000081565b60075481565b60065f9054906101000a900467ffffffffffffffff1681565b5f60055442610286919061195d565b90505f81116102ca576040517f08c379a00000000000000000000000000000000000000000000000000000000081526004016102c1906119da565b60405180910390fd5b5f600a826102d891906119f8565b90505f6102ee8267ffffffffffffffff166107d7565b90505f6102fd600454836107eb565b90505f61030d826004548561085e565b905061031b600454826108d4565b600481905550426005819055505f612710864761033891906119f8565b6103429190611a66565b90505f811180156103535750804710155b1561039d573373ffffffffffffffffffffffffffffffffffffffff166108fc8290811502906040515f60405180830381858888f1935050505015801561039b573d5f803e3d5ffd5b505b505050505050565b5f6060805f805f60606103b6610947565b6103be610981565b46305f801b5f67ffffffffffffffff8111156103dd576103dc611640565b5b60405190808252806020026020018201604052801561040b5781602001602082028036833780820191505090505b507f0f00000000000000000000000000000000000000000000000000000000000000959493929190965096509650965096509650965090919293949596565b5f662386f26fc1000090508047106104a1573373ffffffffffffffffffffffffffffffffffffffff166108fc8290811502906040515f60405180830381858888f1935050505015801561049f573d5f803e3d5ffd5b505b50565b7f0000000000000000000000000000000000000000000000000000000000000000341015610507576040517f08c379a00000000000000000000000000000000000000000000000000000000081526004016104fe90611ae0565b60405180910390fd5b5f610511826109bc565b90505f6105286003546105235f6109d5565b6109e9565b90505f61057460025f3373ffffffffffffffffffffffffffffffffffffffff1673ffffffffffffffffffffffffffffffffffffffff1681526020019081526020015f2054600454610a5c565b90505f61058384600454610a5c565b90505f610599846105948585610acf565b610acf565b90505f6105b8826105aa60016109d5565b6105b35f6109d5565b610b42565b90506105c660035482610bb8565b6003819055505f6105e2836004546105dd5f6107d7565b61085e565b905061062b60025f3373ffffffffffffffffffffffffffffffffffffffff1673ffffffffffffffffffffffffffffffffffffffff1681526020019081526020015f2054826108d4565b60025f3373ffffffffffffffffffffffffffffffffffffffff1673ffffffffffffffffffffffffffffffffffffffff1681526020019081526020015f20819055505f610675610c2b565b90505f61069d61068e83610689607f6107d7565b610c3a565b61069860016107d7565b610cad565b90505f6106ab6103e86107d7565b90505f6106ca876106bc8486610cad565b6106c55f6107d7565b61085e565b90506106d860045482610cad565b600481905550505050505050505050505050565b5f61073360025f3373ffffffffffffffffffffffffffffffffffffffff1673ffffffffffffffffffffffffffffffffffffffff1681526020019081526020015f2054610d1f565b9050919050565b5f610744346107d7565b905061078d60025f3373ffffffffffffffffffffffffffffffffffffffff1673ffffffffffffffffffffffffffffffffffffffff1681526020019081526020015f205482610cad565b60025f3373ffffffffffffffffffffffffffffffffffffffff1673ffffffffffffffffffffffffffffffffffffffff1681526020019081526020015f208190555050565b60055481565b5f6107e48260035f610d39565b9050919050565b5f6107f583610dd9565b610805576108025f6107d7565b92505b61080e82610dd9565b61081e5761081b5f6107d7565b91505b5f8390505f8390505f61085060038484608073ffffffffffffffffffffffffffffffffffffffff1663b9c7a54b610de5565b905080935050505092915050565b5f61086884610e74565b610878576108755f610e80565b93505b61088183610dd9565b6108915761088e5f6107d7565b92505b61089a82610dd9565b6108aa576108a75f6107d7565b91505b5f8490505f8490505f8490505f6108c46003858585610e94565b9050809450505050509392505050565b5f6108de83610dd9565b6108ee576108eb5f6107d7565b92505b6108f782610dd9565b610907576109045f6107d7565b91505b5f8390505f8390505f61093960038484608073ffffffffffffffffffffffffffffffffffffffff1663cc2cbeff610de5565b905080935050505092915050565b606061097c5f7f0000000000000000000000000000000000000000000000000000000000000000610f4790919063ffffffff16565b905090565b60606109b760017f0000000000000000000000000000000000000000000000000000000000000000610f4790919063ffffffff16565b905090565b5f6109ce825f01518360200151610ff4565b9050919050565b5f6109e28260025f610d39565b9050919050565b5f6109f383611009565b610a0357610a005f6109d5565b92505b610a0c82611009565b610a1c57610a195f6109d5565b91505b5f8390505f8390505f610a4e60028484608073ffffffffffffffffffffffffffffffffffffffff1663874b1c10610de5565b905080935050505092915050565b5f610a6683610dd9565b610a7657610a735f6107d7565b92505b610a7f82610dd9565b610a8f57610a8c5f6107d7565b91505b5f8390505f8390505f610ac160038484608073ffffffffffffffffffffffffffffffffffffffff1663650de1cf610de5565b905080935050505092915050565b5f610ad983610e74565b610ae957610ae65f610e80565b92505b610af282610e74565b610b0257610aff5f610e80565b91505b5f8390505f8390505f610b34600d8484608073ffffffffffffffffffffffffffffffffffffffff1663ae104cfd610de5565b905080935050505092915050565b5f610b4c84610e74565b610b5c57610b595f610e80565b93505b610b6583611009565b610b7557610b725f6109d5565b92505b610b7e82611009565b610b8e57610b8b5f6109d5565b91505b5f8490505f8490505f8490505f610ba86002858585610e94565b9050809450505050509392505050565b5f610bc283611009565b610bd257610bcf5f6109d5565b92505b610bdb82611009565b610beb57610be85f6109d5565b91505b5f8390505f8390505f610c1d60028484608073ffffffffffffffffffffffffffffffffffffffff1663cc2cbeff610de5565b905080935050505092915050565b5f610c355f611015565b905090565b5f610c4483610dd9565b610c5457610c515f6107d7565b92505b610c5d82610dd9565b610c6d57610c6a5f6107d7565b91505b5f8390505f8390505f610c9f60038484608073ffffffffffffffffffffffffffffffffffffffff1663ae104cfd610de5565b905080935050505092915050565b5f610cb783610dd9565b610cc757610cc45f6107d7565b92505b610cd082610dd9565b610ce057610cdd5f6107d7565b91505b5f8390505f8390505f610d1160038484608073ffffffffffffffffffffffffffffffffffffffff16622df619610de5565b905080935050505092915050565b5f610d328267800000000000000061102e565b9050919050565b5f6060608073ffffffffffffffffffffffffffffffffffffffff1663ba19ac28610d62876110fc565b86866040518463ffffffff1660e01b8152600401610d8293929190611b7a565b5f60405180830381865afa158015610d9c573d5f803e3d5ffd5b505050506040513d5f823e3d601f19601f82011682018060405250810190610dc49190611c24565b9050610dcf81611159565b9150509392505050565b5f808214159050919050565b5f6060838388610df4896110fc565b610dfd896110fc565b6040518463ffffffff1660e01b8152600401610e1b93929190611c6b565b5f60405180830381865afa158015610e35573d5f803e3d5ffd5b505050506040513d5f823e3d601f19601f82011682018060405250810190610e5d9190611c24565b9050610e6881611166565b91505095945050505050565b5f808214159050919050565b5f610e8d82600d5f610d39565b9050919050565b5f6060608073ffffffffffffffffffffffffffffffffffffffff1663c2d9695287610ebe886110fc565b610ec7886110fc565b610ed0886110fc565b6040518563ffffffff1660e01b8152600401610eef9493929190611cae565b5f60405180830381865afa158015610f09573d5f803e3d5ffd5b505050506040513d5f823e3d601f19601f82011682018060405250810190610f319190611c24565b9050610f3c81611159565b915050949350505050565b606060ff5f1b8314610f6357610f5c83611173565b9050610fee565b818054610f6f90611d33565b80601f0160208091040260200160405190810160405280929190818152602001828054610f9b90611d33565b8015610fe65780601f10610fbd57610100808354040283529160200191610fe6565b820191905f5260205f20905b815481529060010190602001808311610fc957829003601f168201915b505050505090505b92915050565b5f611001836003846111e5565b905092915050565b5f808214159050919050565b5f8061102360035f8561127d565b905080915050919050565b5f61103883610dd9565b611048576110455f6107d7565b92505b5f8267ffffffffffffffff1690505f8490505f611064826110fc565b90505f608073ffffffffffffffffffffffffffffffffffffffff16637c4697ab600384876040518463ffffffff1660e01b81526004016110a693929190611d63565b602060405180830381865afa1580156110c1573d5f803e3d5ffd5b505050506040513d601f19601f820116820180604052508101906110e59190611dc9565b90506110f081611314565b94505050505092915050565b6060602067ffffffffffffffff81111561111957611118611640565b5b6040519080825280601f01601f19166020018201604052801561114b5781602001600182028036833780820191505090505b509050816020820152919050565b5f60208201519050919050565b5f60208201519050919050565b60605f61117f8361131d565b90505f602067ffffffffffffffff81111561119d5761119c611640565b5b6040519080825280601f01601f1916602001820160405280156111cf5781602001600182028036833780820191505090505b5090508181528360208201528092505050919050565b5f6060608073ffffffffffffffffffffffffffffffffffffffff166321b50ba38587866040518463ffffffff1660e01b815260040161122693929190611df4565b5f60405180830381865afa158015611240573d5f803e3d5ffd5b505050506040513d5f823e3d601f19601f820116820180604052508101906112689190611c24565b905061127381611159565b9150509392505050565b5f80608073ffffffffffffffffffffffffffffffffffffffff1663aa626e8a8686866040518463ffffffff1660e01b81526004016112bd93929190611e30565b5f60405180830381865afa1580156112d7573d5f803e3d5ffd5b505050506040513d5f823e3d601f19601f820116820180604052508101906112ff9190611c24565b905061130a81611159565b9150509392505050565b5f819050919050565b5f8060ff835f1c169050601f811115611362576040517fb3512b0c00000000000000000000000000000000000000000000000000000000815260040160405180910390fd5b80915050919050565b5f819050919050565b61137d8161136b565b82525050565b5f6020820190506113965f830184611374565b92915050565b5f67ffffffffffffffff82169050919050565b6113b88161139c565b82525050565b5f6020820190506113d15f8301846113af565b92915050565b5f7fff0000000000000000000000000000000000000000000000000000000000000082169050919050565b61140b816113d7565b82525050565b5f81519050919050565b5f82825260208201905092915050565b5f5b8381101561144857808201518184015260208101905061142d565b5f8484015250505050565b5f601f19601f8301169050919050565b5f61146d82611411565b611477818561141b565b935061148781856020860161142b565b61149081611453565b840191505092915050565b5f73ffffffffffffffffffffffffffffffffffffffff82169050919050565b5f6114c48261149b565b9050919050565b6114d4816114ba565b82525050565b5f819050919050565b6114ec816114da565b82525050565b5f81519050919050565b5f82825260208201905092915050565b5f819050602082019050919050565b6115248161136b565b82525050565b5f611535838361151b565b60208301905092915050565b5f602082019050919050565b5f611557826114f2565b61156181856114fc565b935061156c8361150c565b805f5b8381101561159c578151611583888261152a565b975061158e83611541565b92505060018101905061156f565b5085935050505092915050565b5f60e0820190506115bc5f83018a611402565b81810360208301526115ce8189611463565b905081810360408301526115e28188611463565b90506115f16060830187611374565b6115fe60808301866114cb565b61160b60a08301856114e3565b81810360c083015261161d818461154d565b905098975050505050505050565b5f604051905090565b5f80fd5b5f80fd5b5f80fd5b7f4e487b71000000000000000000000000000000000000000000000000000000005f52604160045260245ffd5b61167682611453565b810181811067ffffffffffffffff8211171561169557611694611640565b5b80604052505050565b5f6116a761162b565b90506116b3828261166d565b919050565b5f80fd5b5f80fd5b5f80fd5b5f67ffffffffffffffff8211156116de576116dd611640565b5b6116e782611453565b9050602081019050919050565b828183375f83830152505050565b5f61171461170f846116c4565b61169e565b9050828152602081018484840111156117305761172f6116c0565b5b61173b8482856116f4565b509392505050565b5f82601f830112611757576117566116bc565b5b8135611767848260208601611702565b91505092915050565b5f8160030b9050919050565b61178581611770565b811461178f575f80fd5b50565b5f813590506117a08161177c565b92915050565b5f604082840312156117bb576117ba61163c565b5b6117c5604061169e565b90505f82013567ffffffffffffffff8111156117e4576117e36116b8565b5b6117f084828501611743565b5f83015250602061180384828501611792565b60208301525092915050565b5f6020828403121561182457611823611634565b5b5f82013567ffffffffffffffff81111561184157611840611638565b5b61184d848285016117a6565b91505092915050565b61185f816114da565b8114611869575f80fd5b50565b5f8135905061187a81611856565b92915050565b5f604082840312156118955761189461163c565b5b61189f604061169e565b90505f6118ae8482850161186c565b5f83015250602082013567ffffffffffffffff8111156118d1576118d06116b8565b5b6118dd84828501611743565b60208301525092915050565b5f602082840312156118fe576118fd611634565b5b5f82013567ffffffffffffffff81111561191b5761191a611638565b5b61192784828501611880565b91505092915050565b7f4e487b71000000000000000000000000000000000000000000000000000000005f52601160045260245ffd5b5f6119678261136b565b91506119728361136b565b925082820390508181111561198a57611989611930565b5b92915050565b7f4e6f2074696d65207061737365640000000000000000000000000000000000005f82015250565b5f6119c4600e8361141b565b91506119cf82611990565b602082019050919050565b5f6020820190508181035f8301526119f1816119b8565b9050919050565b5f611a028261136b565b9150611a0d8361136b565b9250828202611a1b8161136b565b91508282048414831517611a3257611a31611930565b5b5092915050565b7f4e487b71000000000000000000000000000000000000000000000000000000005f52601260045260245ffd5b5f611a708261136b565b9150611a7b8361136b565b925082611a8b57611a8a611a39565b5b828204905092915050565b7f5370616d2077616c6c3a204d75737420706179206669786564206665650000005f82015250565b5f611aca601d8361141b565b9150611ad582611a96565b602082019050919050565b5f6020820190508181035f830152611af781611abe565b9050919050565b5f81519050919050565b5f82825260208201905092915050565b5f611b2282611afe565b611b2c8185611b08565b9350611b3c81856020860161142b565b611b4581611453565b840191505092915050565b5f60ff82169050919050565b611b6581611b50565b82525050565b611b7481611770565b82525050565b5f6060820190508181035f830152611b928186611b18565b9050611ba16020830185611b5c565b611bae6040830184611b6b565b949350505050565b5f611bc8611bc3846116c4565b61169e565b905082815260208101848484011115611be457611be36116c0565b5b611bef84828561142b565b509392505050565b5f82601f830112611c0b57611c0a6116bc565b5b8151611c1b848260208601611bb6565b91505092915050565b5f60208284031215611c3957611c38611634565b5b5f82015167ffffffffffffffff811115611c5657611c55611638565b5b611c6284828501611bf7565b91505092915050565b5f606082019050611c7e5f830186611b5c565b8181036020830152611c908185611b18565b90508181036040830152611ca48184611b18565b9050949350505050565b5f608082019050611cc15f830187611b5c565b8181036020830152611cd38186611b18565b90508181036040830152611ce78185611b18565b90508181036060830152611cfb8184611b18565b905095945050505050565b7f4e487b71000000000000000000000000000000000000000000000000000000005f52602260045260245ffd5b5f6002820490506001821680611d4a57607f821691505b602082108103611d5d57611d5c611d06565b5b50919050565b5f606082019050611d765f830186611b5c565b8181036020830152611d888185611b18565b9050611d976040830184611374565b949350505050565b611da88161136b565b8114611db2575f80fd5b50565b5f81519050611dc381611d9f565b92915050565b5f60208284031215611dde57611ddd611634565b5b5f611deb84828501611db5565b91505092915050565b5f606082019050611e075f830186611b5c565b8181036020830152611e198185611b18565b9050611e286040830184611b6b565b949350505050565b5f606082019050611e435f830186611b5c565b611e5060208301856113af565b611e5d6040830184611b6b565b94935050505056fea264697066735822122022b334368125962981b09f6b42369d1d0203cefb215c872cac259c8847aed6ed64736f6c63430008180033",
  "linkReferences": {},
  "deployedLinkReferences": {}
}